:100000000C949B060C94C3060C94C3060C94C30674
:100010000C94C3060C94C3060C94C3060C94C3063C
:100020000C94C3060C94C3060C94C3060C94C3062C
:100030000C94C3060C94C3060C94C3060C94C3061C
:100040000C9443160C94C3060C94B3160C948D16A2
:100050000C94C3060C94C3060C94C3060C94C306FC
:100060000C94E5160C94C306000000000500010086
:1000700000030D0602F4050007050901F40A000A51
:100080000C0A00F51900090F0A01F32A00100D10DF
:1000900000F444000C0D0D01F4580003050501F4B3
:1000A0005A0006110601F4670006110600F47400F8
:1000B00005060701F4780007080B02F97F00030525
:1000C0000401FF810005020600FB83000302040116
:1000D000FF8400050D0500F48D00090D0A01F49C54
:1000E00000050D0A02F4A500090D0A01F4B4000888
:1000F0000D0A01F4C100080D0A02F4CE00090D0A30
:1001000001F4DD00090D0A01F4EC00090D0A00F408
:10011000FB000A0D0A00F40C01090D0A01F41B0191
:1001200003090401F81F01030C0401F82401090963
:100130000B01F82F0109060B01FA360109090B0121
:10014000F84101090D0B01F45001100F1200F46E7B
:10015000010C0D0D00F482010B0D0D01F494010C46
:100160000D0D01F4A8010C0D0D01F4BC01090D0CDD
:1001700001F4CB01090D0B01F4DA010B0D0E01F4B2
:10018000EC010B0D0D01F4FE01030D0601F4030259
:10019000080D0A01F410020C0D0D01F42402080DE3
:1001A0000B01F431020E0D1001F448020B0D0E018B
:1001B000F45A020D0D0E01F470020B0D0C01F482C5
:1001C000020D0E0E01F499020C0D0D01F4AD020B9F
:1001D0000D0C01F4BF02090D0C02F4CE020B0D0D43
:1001E00001F4E0020C0D0C00F4F402110D1100F406
:1001F00010030C0D0C00F424030B0D0C01F436035A
:10020000090D0B01F4450304110601F44E03050D1D
:100210000500F4570304110600F4600308080B01FD
:10022000F468030A010A00046A0303020500F46B80
:10023000030A0A0A01F778030A0D0B01F48903097E
:100240000A0A01F79503090D0B01F4A403090A0A30
:1002500001F7B003050D0601F4B903090E0B01F710
:10026000C903090D0B01F4D803030D0501F4DD03E7
:1002700004110500F4E603090D0A01F4F503030D6A
:100280000501F4FA030E0A1001F70C04090A0B0128
:10029000F718040A0A0B01F725040A0E0B01F737B9
:1002A00004090E0B01F74704060A0701F74F04097A
:1002B0000A0A01F75B04050C0601F56304090A0B41
:1002C00001F76F040A0A0A00F77C040E0A0E00F711
:1002D0008E040A0A0A00F79B040A0E0A00F7AD040E
:1002E000080A0901F7B70404110701F4C004011159
:1002F0000502F4C30404110702F4CC040802090047
:10030000FCFFFFFE487EEFDFBF7440198667FDFFEC
:10031000330CC333FEFF99866190101F1FDEFF3F31
:1003200083C0FC1F09FCFEF7F1E04038107C30C6AA
:1003300020C640C6407C80399C013E0363026304B2
:10034000630C3E081C0E01F83B83B83F01E03E679A
:1003500076E3EE1CF3C7FE3F70FFF418631C738E48
:1003600038E38E1870C3060861830E3871C71C719C
:10037000C638E31840213E45283870E7FFE70E1CD9
:10038000FC9CFFC0FC08C4231084621188003E3F1F
:100390009DDC7E3F1F8FC7E3F1DDCFE3E008FFF375
:1003A0009CE739CE73803E3FB8FC70381C1C1C1C87
:1003B0001C1C0FF7F83C7FE7E7070C0E0707E7E781
:1003C0007E3C0E1E1E2E2E4E4E8EFFFF0E0E0E7FFC
:1003D0003F90180DE7FB9E070381F1FFE7C03E3F0A
:1003E0009CFC0EE7FBDFC7E3F1DDEFE3E0FFFFC0BE
:1003F000E0E0607030381C0C0E0703803F1FEE3FBA
:1004000087E3CFC7FBCFE1F87F3DFE3F003E3FBD16
:10041000DC7E3F1FDEFF3B81F9CFE3C0FC0007E03D
:10042000FC0007E5E00083C7DF0C0780F81F0180B0
:10043000FFFFC0000FFFFC00703F03E0387DF1E0DC
:1004400080003E3FB8FC70381C1C1C1C0E00038151
:10045000C003F00FFC1E0E380270E96319C219C602
:1004600011C633C63263FE73DC3C001FF807F00789
:1004700000F00F80F81D819C19C38C3FE7FE706669
:1004800007E070FF9FFB83F07E0FFF3FF706E0FC65
:100490001F83FFEFF81F83FE78E707E00E00E00EF2
:1004A00000E0070778F3FE1F80FF8FFCE0EE0EE010
:1004B0007E07E07E07E07E0EE0EFFCFF80FFFFF8A6
:1004C0001C0E07FBFDC0E070381FFFF8FFFFF81C93
:1004D0000E07FBFDC0E070381C0E000F87F9E3B873
:1004E0003E01C038FF1FE06E0DE39FD0F2E0FC1F1D
:1004F00083F07E0FFFFFFF07E0FC1F83F07E0EFFFF
:10050000FFFFFFFE0707070707070707E7E7E77E85
:100510003CE0EE1CE38E70EE0FC0FE0F70E70E386D
:10052000E1CE0EE0E0E0E0E0E0E0E0E0E0E0E0E0AE
:10053000FFFFF87FE1FF87FE1FEC7FB37ECDFB3727
:10054000ECDF9E7E79F9E7E79CE0FE1FC3FC7FCFDE
:10055000D9FBBF37E7FC7F87F0FE0E0F81FF1E3C03
:10056000E0EE03F01F80FC07E03B839E3C7FC0F879
:1005700000FF9FFB87F07E0FC3FFF7FCE01C0380AA
:10058000700E000F81FF1E3CE0EE03F01F80FC07A1
:10059000E1BB8F9E3C7FE0FB8008FF8FFCE0EE0E0E
:1005A000E0EE0EFFCFFCE0EE0EE0EE0EE0F03F0FCF
:1005B000FBC7F07E01FC1FF03F00FC1DC7BFE1F848
:1005C000FFFFC70381C0E070381C0E070381C0E045
:1005D000FC1F83F07E0FC1F83F07E0FC1FC7BFE19F
:1005E000F060670E70E30C30C39C1981981F80F097
:1005F0000F00F0060061C3B8E19C70CE3CE3367199
:100600009B30ED98367C1B3C0F1E078F01C380E1A9
:100610008070E78E39C1F81F80F00700F01F819CC1
:1006200039C70E70E0E0FC39C718C3B83607C07090
:100630000E01C0380700E0FFFFC0E0E0F07070700E
:100640007838381FFFF8FFEEEEEEEEEEEEEFF086B4
:100650001086108430843080FF7777777777777FC4
:10066000F0181C3C3E366663C3FFC0CC3F1FEE381B
:100670000E3F9EEE3B9EFF9EE0E0380E03BCFFBCAB
:10068000EE1F87E1F87F3BFEEF001F3FDC7C0E078B
:100690000380E37F8F000381C0E777FBBF8FC7E351
:1006A000F1FDEFF3B83E3F9CDC3FFFFF81C37F8F3E
:1006B000003BDDFFB9CE739CE7003BBFDDFC7E3F16
:1006C0001F8FEF7F9DC0FC77F1F0E070381DEFFFCA
:1006D0009F8FC7E3F1F8FC7E38FC7FFFFFFE7707B2
:1006E00077777777777FE0E070381C7E7773F1F863
:1006F000FE7739DC6E38FFFFFFFFFEEF7BFFFE3930
:10070000F8E7E39F8E7E39F8E7E39F8E70EF7FF87E
:10071000FC7E3F1F8FC7E3F1C01E1FE73B87E1F858
:100720007E1DCE7F8780EF3FEF3B87E1F87E1FCEB7
:10073000FFBBCE0380E038003BBFFDFC7E3F1F8F38
:10074000EF7F9DC0E070381CEFFF38E38E38E38008
:100750003E3FB8FC0FC3FC3FC7FF1F0073BFF73914
:10076000CE739E70E3F1F8FC7E3F1F8FC7FFBDC0C4
:10077000E1986739CC330DC3E0781E0700E31D9E76
:10078000667999E677B8D2C3CF0F3C3CF07380739B
:100790009CE3F0781E0781E0FC739CE0E1D86739A8
:1007A000CE330EC3E0781E0300C070380E00FEFE8C
:1007B0000E1C383870E0FFFF3766666EE6666667C7
:1007C00030FFFF80CE6666677666666EC0718E000B
:1007D000000000003E5B4F5B3E3E6B4F6B3E1C3E9D
:1007E0007C3E1C183C7E3C181C577D571C1C5E7FB1
:1007F0005E1C00183C1800FFE7C3E7FF0018241830
:1008000000FFE7DBE7FF30483A060E262979292664
:10081000407F050507407F05253F5A3CE73C5A7F4E
:100820003E1C1C08081C1C3E7F14227F22145F5FA4
:10083000005F5F06097F017F006689956A606060DE
:10084000606094A2FFA29408047E040810207E2019
:100850001008082A1C08081C2A08081E101010106E
:100860000C1E0C1E0C30383E3830060E3E0E0600B4
:100870000000000000005F00000007000700147F78
:10088000147F14242A7F2A122313086462364956DF
:1008900020500008070300001C2241000041221CD8
:1008A000002A1C7F1C2A08083E08080080703000BF
:1008B0000808080808000060600020100804023ED4
:1008C0005149453E00427F40007249494946214115
:1008D000494D331814127F1027454545393C4A4984
:1008E00049314121110907364949493646494929C3
:1008F0001E000014000000403400000008142241D3
:100900001414141414004122140802015909063E5B
:10091000415D594E7C1211127C7F494949363E4156
:100920004141227F4141413E7F494949417F090977
:1009300009013E414151737F0808087F00417F4112
:10094000002040413F017F081422417F4040404049
:100950007F021C027F7F0408107F3E4141413E7FA1
:10096000090909063E4151215E7F09192946264998
:1009700049493203017F01033F4040403F1F20406F
:10098000201F3F4038403F63140814630304780479
:10099000036159494D43007F414141020408102041
:1009A000004141417F0402010204404040404000B8
:1009B0000307080020545478407F284444383844C2
:1009C000444428384444287F385454541800087E3E
:1009D000090218A4A49C787F0804047800447D4090
:1009E000002040403D007F1028440000417F40002F
:1009F0007C047804787C080404783844444438FC47
:100A00001824241818242418FC7C080404084854CA
:100A100054542404043F44243C4040207C1C204087
:100A2000201C3C4030403C44281028444C9090907E
:100A30007C4464544C4400083641000000770000B8
:100A4000004136080002010204023C2623263C1E17
:100A5000A1A161123A4040207A3854545559215589
:100A600055794122545478422155547840205455A8
:100A700079400C1E527212395555555939545454F7
:100A80005939555454580000457C410002457D4277
:100A90000001457C407D1211127DF0282528F07C54
:100AA000545545002054547C547C0A097F493249EE
:100AB0004949323A4444443A324A4848303A41413A
:100AC000217A3A42402078009DA0A07D3D424242DA
:100AD0003D3D4040403D3C24FF2424487E49436640
:100AE0002B2FFC2F2BFF0929F620C0887E0903201D
:100AF000545479410000447D413048484A323840DE
:100B000040227A007A0A0A727D0D19317D26292940
:100B10002F28262929292630484D40203808080842
:100B20000808080808382F10C8ACBA2F102834FA63
:100B300000007B000008142A142222142A140855ED
:100B400000550055AA55AA55AAFF55FF55FF0000AC
:100B500000FF00101010FF00141414FF001010FF0D
:100B600000FF1010F010F0141414FC001414F7001F
:100B7000FF0000FF00FF1414F404FC141417101FEE
:100B800010101F101F1414141F00101010F000007C
:100B900000001F101010101F10101010F010000097
:100BA00000FF101010101010101010FF10000000A7
:100BB000FF140000FF00FF00001F10170000FC04DE
:100BC000F414141710171414F404F40000FF00F7C1
:100BD00014141414141414F700F714141417141024
:100BE000101F101F141414F4141010F010F0000053
:100BF0001F101F0000001F14000000FC140000F074
:100C000010F01010FF10FF141414FF141010101F18
:100C100000000000F010FFFFFFFFFFF0F0F0F0F029
:100C2000FFFFFF0000000000FFFF0F0F0F0F0F3846
:100C300044443844FC4A4A4A347E02020606027E94
:100C4000027E0263554941633844443C04407E209F
:100C50001E2006027E020299A5E7A5991C2A492AB0
:100C60001C4C7201724C304A4D4D3030487848303F
:100C7000BC625A463D3E494949007E0101017E2A37
:100C80002A2A2A2A44445F444440514A444040446A
:100C90004A51400000FF0103E080FF000008086B9C
:100CA0006B083612362436060F090F060000181896
:100CB0000000001010003040FF0101001F01011E64
:100CC00000191D1712003C3C3C3C000000000001D4
:100CD00003680020007E00160000000024002700AA
:100CE0002A000000000800020100000304070000C1
:100CF0000000000000000000000023002600290082
:100D000001020408102040800102040810200102A2
:100D10000408102000000000250028002B00040417
:100D20000404040404040202020202020303030393
:100D3000030300187E1C11241FBECFEFD8E0DEBFD6
:100D4000CDBF26E0A4E6B3E001C01D92A039B207F2
:100D5000E1F713E0A0E0B1E0EAEAF2E402C00590B6
:100D60000D92A436B107D9F716E0CAE9D6E004C05F
:100D70002197FE010E944B1FC939D107C9F70E9474
:100D80005B190C9448210C940000FC0120812EBDBD
:100D90000DB407FEFDCF2EB5FC0120830895CF9240
:100DA000DF92EF92FF92CF93DF93B0915306A0E0D2
:100DB0008111AB2F8091540690E0880F991FAC01F0
:100DC0004A50534FC0905906D0905A06E0905B06A7
:100DD000F0905C0630E020E0FA01C591D491E88102
:100DE000B90190E080E0EB23EA130AC02F5F3F4F88
:100DF0006C157D058E059F0578F36FEF7FEFCB01B6
:100E0000DF91CF91FF90EF90DF90CF9008958230E7
:100E1000910538F0880F991F880F991F0597019742
:100E2000F1F708959F92AF92BF92CF92DF92EF9227
:100E3000FF920F931F93CF93DF93EC016B01888593
:100E4000998511E0892B09F010E8F601A0808A2D20
:100E50008123992493948111912C2C813D814E8181
:100E60005F8160E271EA87E090E00E94151F022F27
:100E7000B12CE22EF12C002319F0C7010E940707C4
:100E80008A85877F09F04FC08D858F3F89F09A2D25
:100E9000912381E009F480E0891551F0EF85F8890C
:100EA0008F899923D1F19081892B80839924939400
:100EB000E989FA898081998D892B8083002319F033
:100EC000C7010E9407078E858F3F39F0EB89FC89A7
:100ED0008081988D892309F0B12AE989FA89908166
:100EE000898D8095892380838E858F3F11F0F6014F
:100EF000B08288859985892B09F044C0110F1111A2
:100F0000BACFDF91CF911F910F91FF90EF90DF90BB
:100F1000CF90BF90AF909F90089590818095892346
:100F20008083912CC5CFE989FA898081998D892B9D
:100F30008083002319F0C7010E9407078D858F3F2A
:100F400049F0EF85F8898F899A2D9123B9F0908126
:100F5000892B8083E989FA899081898D80958923FD
:100F600080838E858F3F09F4BFCFEB89FC89808118
:100F7000988D892309F4B8CFB12AB6CF9081809596
:100F80008923E7CF1695BBCF90E0FC01EE51F34FDC
:100F90002491FC01E050F34F3491FC01E25EF24FEA
:100FA000E491EE23C9F0222339F0233001F1A8F4B3
:100FB000213019F1223029F1F0E0EE0FFF1FEC5E35
:100FC000F24FA591B4918FB7F894EC91611126C0BE
:100FD00030953E233C938FBF08952730A9F02830E9
:100FE000C9F0243049F7809180008F7D03C0809143
:100FF00080008F7780938000DFCF84B58F7784BDAA
:10100000DBCF84B58F7DFBCF8091B0008F7780934D
:10101000B000D2CF8091B0008F7DF9CF3E2BDACFD8
:10102000AF92BF92CF92DF92EF92FF920F931F93F6
:10103000CF93DF931F92CDB7DEB78C015B016A01BE
:10104000DC018D919C911197892B39F01296ED91CD
:10105000FC91908181819CBD8DBDF80183858F3F7E
:1010600019F060E00E94C4077501CA0CDB1CCE14A5
:10107000DF04A9F0D7018D917D018983F80180817A
:101080009181892B29F0CE0101960E94C506EFCFF0
:10109000BE016F5F7F4FC8010E941207E8CFD801E1
:1010A0001B968C918F3F19F061E00E94C40781E08C
:1010B0000F90DF91CF911F910F91FF90EF90DF90F4
:1010C000CF90BF90AF900895CF93DF9390E0FC0155
:1010D000E050F34F2491825E924FFC01849188236B
:1010E000C9F090E0880F991FFC01E852F34FA591D9
:1010F000B491FC01EC5EF24FC591D49161110DC029
:101100009FB7F8948C91209582238C938881282313
:1011100028839FBFDF91CF910895623051F49FB72C
:10112000F8943C91822F809583238C93E8812E2B19
:10113000EFCF8FB7F894EC912E2B2C938FBFEACF83
:101140003FB7F8948091A7059091A805A091A905B3
:10115000B091AA0526B5A89B05C02F3F19F00196AE
:10116000A11DB11D3FBFBA2FA92F982F8827BC0101
:10117000CD01620F711D811D911D42E0660F771F29
:10118000881F991F4A95D1F708958F929F92AF9229
:10119000BF92CF92DF92EF92FF924B015C010E94CF
:1011A000A0086B017C010E94A0086C197D098E09C2
:1011B0009F09683E734081059105A8F321E0821ADA
:1011C0009108A108B10888EEC80E83E0D81EE11C82
:1011D000F11C81149104A104B10429F7FF90EF9050
:1011E000DF90CF90BF90AF909F908F900895CF9257
:1011F000DF92EF92FF920F931F93CF93DF93CDB7C0
:10120000DEB7C054D1400FB6F894DEBF0FBECDBFDD
:101210002FB7F8948091AB059091AC05A091AD05E6
:10122000B091AE052FBF4091550650915606609182
:101230005706709158068C019D01041B150B260B57
:10124000370BB901A801403D57406105710590F485
:1012500080915D06C05CDE4F0FB6F894DEBF0FBE16
:10126000CDBFDF91CF911F910F91FF90EF90DF9055
:10127000CF9008958093550690935606A0935706F5
:10128000B09358061092500610924F0610924E06D8
:1012900010924D0610924C0662E0809151060E9419
:1012A000640861E070E080E090E00E94C50861E0C1
:1012B000809151060E94640860E0809151060E946E
:1012C000C4078091520685518230E0F48BE291E1AF
:1012D0000197F1F762E0809151060E9464088091C5
:1012E0005E0690E00E940707F89480E00E94CF0617
:1012F0006F3F7F4F8F4F9F4F61F410925D06789440
:1013000080E0A8CF64E170E080E090E00E94C50832
:10131000E1CF81E00E94CF066F3F7F4F8F4F9F4FFD
:1013200061F38E010F5F1F4F6E018FEBC81A8EEFB6
:10133000D80A780180E00E94CF06F70160837183AC
:101340008283938381E00E94CF06F70164837583D3
:1013500086839783F8E0EF0EF11CEC14FD0451F73F
:10136000789430E020E0F801C080D180E280F38002
:101370004481558166817781FFEFCF16DF06EF0646
:10138000FF0631F04F3F8FEF58076807780719F4D1
:1013900010925D06B5CFF90183E0F595E7958A9542
:1013A000E1F7E45BF94F8081880FC416D506E606A5
:1013B000F70610F180832F5F3F4F085F1F4F2832E1
:1013C000310589F64091500620914C0680914D06DA
:1013D000280F3327331F80914E06280F311D80912F
:1013E0004F06820F932F911D99274817190681F6F2
:1013F00081E080935D062ECF8160DCCFAF92BF92FB
:10140000CF92DF92EF92FF920F931F93CF93DF93D0
:101410006C017B018B01040F151FEB015E01AE18FF
:10142000BF08C017D10759F06991D601ED91FC9121
:101430000190F081E02DC6010995892B79F7C5014E
:10144000DF91CF911F910F91FF90EF90DF90CF90A0
:10145000BF90AF900895FC01538D448D252F30E04F
:10146000842F90E0821B930B541710F0CF960895B1
:1014700001970895FC01918D828D981761F0A28DDE
:10148000AE0FBF2FB11D5D968C91928D9F5F9F73A4
:10149000928F90E008958FEF9FEF0895FC01918D5A
:1014A000828D981731F0828DE80FF11D858D90E0C7
:1014B00008958FEF9FEF0895FC01918D228D892F64
:1014C00090E0805C9F4F821B91098F73992708954C
:1014D0008FEA95E00E945C0A21E0892B09F420E064
:1014E000822F089580E090E0892B29F00E94680AFD
:1014F00081110C9400000895FC01A48DA80FB92F50
:10150000B11DA35ABF4F2C91848D90E001968F732B
:101510009927848FA689B7892C93A089B1898C914A
:10152000837080648C93938D848D981306C0028899
:10153000F389E02D80818F7D80830895EF92FF9263
:101540000F931F93CF93DF93EC0181E0888F9B8DE6
:101550008C8D98131AC0E889F989808185FF15C0A0
:101560009FB7F894EE89FF896083E889F9898081C3
:101570008370806480839FBF81E090E0DF91CF9192
:101580001F910F91FF90EF900895F62E0B8D10E0B4
:101590000F5F1F4F0F731127E02E8C8D8E110CC023
:1015A0000FB607FCFACFE889F989808185FFF5CF6E
:1015B000CE010E947C0AF1CFEB8DEC0FFD2FF11DC7
:1015C000E35AFF4FF0829FB7F8940B8FEA89FB89AB
:1015D00080818062CFCFCF93DF93EC01888D882309
:1015E000B9F0AA89BB89E889F9898C9185FD03C086
:1015F000808186FD0DC00FB607FCF7CF8C9185FF6B
:10160000F2CF808185FFEDCFCE010E947C0AE9CF29
:10161000DF91CF9108950F931F93CF93DF931F9284
:10162000CDB7DEB78C01698360E0FC01868D0E9436
:10163000C40741E050E0BE016F5F7F4FF801838D2A
:10164000948D0E9410080F90DF91CF911F910F9100
:101650000895CF93C82F87FDCFE7C0937E0661E240
:101660008FE596E00E940B0B6C2F60688FE596E08B
:101670000E940B0B60E28FE596E0CF910C940B0B70
:10168000CF9380917C0687FD13C061E00E946408BF
:1016900060E080917C060E94C40761E070E080E019
:1016A00090E00E94C50861E080917C060E94C4071A
:1016B000C0917F06C83008F0C7E0C0937F0661E2A2
:1016C0008FE596E00E940B0B6C2F60618FE596E032
:1016D0000E940B0B60E28FE596E00E940B0B80915D
:1016E0007E060E94290B60E28FE596E00E940B0BBC
:1016F0006CE08FE596E0CF910C940B0BFF920F936B
:101700001F93CF93DF9390918006992339F08091B6
:1017100081068F5F8917E8F580938106D091840652
:10172000D695D695D69584E5D89F800111248091D1
:1017300085068695869586958D1780F16D2F606458
:101740008FE596E00E940B0BC0918206F090830615
:101750006C2F60688FE596E00E940B0B61E0809132
:101760007D060E94C4074F2D50E06C2F70E0461B91
:10177000570B4F5F5F4F600F711F60507F4F80911D
:101780007A0690917B060E941008DF5F0C5A1F4F6B
:10179000CECF109281060E94400BC0CF60E48FE54F
:1017A00096E00E940B0B83E58093820610928306DD
:1017B0008FE28093840610928506DF91CF911F916E
:1017C0000F91FF9008951F93CF93DF93EC01162F95
:1017D00060E20E940B0B6CE011116DE0CE01DF9115
:1017E000CF911F910C940B0BFC0177FD55C08085A8
:1017F0009185681779070CF04FC057FD4DC0828561
:101800009385481759070CF047C08689823009F440
:1018100044C0833009F44EC0813031F48FE290E04F
:10182000861B970BBA01AC01842FA62F93A16917D1
:1018300008F4962F93A394A19A1708F49A2F94A3CF
:1018400095A1891708F4982F95A396A1981708F4E5
:10185000982F96A3CA0157FD0796E3E095958795C3
:10186000EA95E1F7A4E5A89FF001A99FF00D1124E6
:10187000E60FF71FE050FF4FCA0168E070E00E94DA
:10188000011F41E050E001C0440F8A95EAF78081D2
:10189000232BB9F0842B8083089583E590E0DC014D
:1018A000A61BB70BBD018FE290E0DC01A41BB50BBA
:1018B000AD01BACF83E590E0841B950BAB01BC0171
:1018C000B3CF40958423E7CF20918B03260F332796
:1018D000331F21323105ECF42091AF03FC0190E07D
:1018E00080E0243069F082E00895A0918B0321917B
:1018F000AC0145595C4FA40FB52FB11D2C93019637
:10190000861798F380918B03680F60938B0380E0B8
:10191000089581E0089508958FEF9FEF08958FEF68
:101920009FEF08958091640390E0919581959109CE
:101930000895CF93DF93CB01EA01642F0E94640CDA
:10194000CE01DF91CF910895CF93DF931F92CDB752
:10195000DEB7698361E0CE0101960E94640C81E0EC
:1019600090E00F90DF91CF9108950895FC0163708E
:10197000668B8481958126813781613039F06330AF
:1019800029F09187808733872287089531872087C0
:101990009387828708952F923F924F925F926F9222
:1019A0007F928F929F92AF92BF92CF92DF92EF92EF
:1019B000FF920F931F93CF93DF93CDB7DEB76A9754
:1019C0000FB6F894DEBF0FBECDBF9A8F898F7A8392
:1019D00069834A01D22E18870F833701BC2CDC01A2
:1019E00059962D913C915A972115310509F015C151
:1019F00018968D919C911997681779070CF0D7C1AB
:101A00001A968D919C91481759070CF0D0C14C2C17
:101A1000512CB6E0CB9E600D711D11247C876B8725
:101A2000161617060CF0C3C1EA2DF0E0FA87E98715
:101A300093E0EE0FFF1F9A95E1F7F88BEF87CF0148
:101A4000840F951F181619060CF0B1C1A98DBA8D17
:101A500058968C91811104C0BFEABD1508F4D39447
:101A6000A98DBA8DED91FC9111970284F385E02D3B
:101A7000CD010995B5E0DB9EC0011124E981FA8111
:101A8000FC83EB83312C212C9C012153384F388F60
:101A90002F8B4A2D50E05E8B4D8BEF89F88DE20D38
:101AA000F31D44919E828D82D12CC12C69817A8153
:101AB000620D731D7A8B698B842F90E09C8B8B8BCE
:101AC000E98DFA8DA081B18140FF82C0F1E0BF12A3
:101AD0006FC0AF126DC01C96ED91FC912F813885BF
:101AE000A4014C0D5D1D69897A89898D9A8D0995AE
:101AF000EB89FC89F595E7954E2F5FEFC51AD50A5E
:101B00006D817E818D899E89680F791F7E836D83AB
:101B100098E0C916D10481F6AFEF2A1A3A0AEB8190
:101B2000FC81E40DF51DFC83EB83F5E02F163104F9
:101B300009F0B3CF2F81388526153705B9F0A98D67
:101B4000BA8DED91FC91B1E0BB1257C0AB1255C0FC
:101B500069817A816B5F7F4F0088F189E02D830175
:101B600028E030E0A401898D9A8D0995A98DBA8D60
:101B7000ED91FC9111970688F789E02DCD016A96C9
:101B80000FB6F894DEBF0FBECDBFDF91CF911F918E
:101B90000F91FF90EF90DF90CF90BF90AF909F900C
:101BA0008F907F906F905F904F903F902F9009940F
:101BB0001E96ED91FC91EF80F88409851A859201BB
:101BC0004D815E816B817C81898D9A8D099590CF45
:101BD0002F8138852615370509F48ACF31E0B312F5
:101BE00007C0A31205C01C96ED91FC91930178CF1C
:101BF0001E96ED91FC917301E0CF6B857C85641995
:101C000075090684F785E02D73010F851889920107
:101C1000A401898D9A8D0995A9CFF90134969491E3
:101C2000329745915491D91AB7E0DB9E400D511D72
:101C30001124F901259134913C8B2B8BFA012590CD
:101C40003490FA013296749031963491398B3296F1
:101C500064903196449041E04C1518F04A1508F014
:101C60007FC0662D062C000C770B7C836B83842D44
:101C7000042C000C990B9E838D83A98DBA8DED9158
:101C8000FC9111970284F385E02DCD010995512C2B
:101C9000D12CC12CEA2DF0E0FA87E9872B2D30E01A
:101CA0003C872B87A401440D511D47FC5A95588F42
:101CB0004F8B69817A81660D711D67FC7A957E87ED
:101CC0006D877989C71608F051CF2C2D30E04D81F2
:101CD0005E81420F531FA985BA854A9FC0014B9F61
:101CE000900D5A9F900D1124FC01E80DF91DF88B01
:101CF000EF87852D612C4F89588D420F531F5E8BC6
:101D00004D8B671408F050C044244394480E8770EC
:101D100041F4C1010196EB89FC89E20DF31DD490D9
:101D20001C01D7FE19C0A98DBA8DED91FC91662DCD
:101D300070E0B1E0BB1219C0AB1217C02D853E8513
:101D4000620F731F0484F585E02D2F8138854D893E
:101D50005E89898D9A8D0995DD0C6394842DD1CF90
:101D60001E821D821C821B8288CF4B815C81640F86
:101D7000751FAB85BC856A9FC0016B9F900D7A9FD4
:101D8000900D112469817A81680F791F0684F78587
:101D9000E02DEF80F88409851A859D014F855889CB
:101DA000898D9A8D0995D8CF570CC3948ACF6A969E
:101DB0000FB6F894DEBF0FBECDBFDF91CF911F915C
:101DC0000F91FF90EF90DF90CF90BF90AF909F90DA
:101DD0008F907F906F905F904F903F902F900895DD
:101DE0008F929F92AF92CF92EF92FF920F931F9399
:101DF000CF93DF93EC01262F898D9A8D009709F000
:101E000051C06A30D1F41D861C868D8948E0849FBC
:101E1000900111248E859F85820F931F9F878E8747
:101E200081E090E0DF91CF911F910F91FF90EF90B3
:101E3000CF90AF909F908F9008956D3089F3CC88AC
:101E4000AD888F898823C1F08C859D8536E0C39E3F
:101E5000800D911D1124488559854817590764F450
:101E60004E855F851D861C8638E0A39EC001112427
:101E7000840F951F9F878E87EA88FB8808891989B8
:101E80004E855F856C857D85CE010E94CB0C2C89AB
:101E90008C859D8546E0249F800D911D11249D8792
:101EA0008C87BECF6A3069F41D861C86FC0138968B
:101EB000E4912D898E859F85E29F800D911D1124CF
:101EC000ADCF6D3009F4ACCFFC013496349163177B
:101ED00008F4A6CF3296E491E61708F4A1CFFC01EE
:101EE000329685909490462F431B342F47E0349FC1
:101EF000800C911C1124F401329634913196E491B6
:101F00003323A9F1EE2399F1CC88F4013596E491BD
:101F1000AD884F89442301F10E2E000CFF0BE30F17
:101F2000F11DCE9EA001CF9E500D11246C857D85A4
:101F3000460F571F68857985641775076CF44E85C1
:101F40005F851D861C86FC013896E491AE9E400D8F
:101F5000511D11245F874E87EA88FB8808891989FB
:101F60004E855F856C857D85CE010E94CB0CF4018A
:101F70003496E4912C898C859D85E29F800D911D7E
:101F800011248DCF6F927F928F929F92AF92BF92CA
:101F9000CF92DF92EF92FF920F931F93CF93DF9335
:101FA000EC016B015A0139014801E881F981028491
:101FB000F385E02D0995E881F9810288F389E02D08
:101FC00087019301A501B601CE010995A501480D30
:101FD000591D41505109E881F9810288F389E02DAA
:101FE0009301B601CE010995E881F9810088F18954
:101FF000E02D9401A501B601CE010995C60CD71CB0
:10200000B60161507109E881F9810088F189E02DFC
:102010009401A501CE010995E881F9810688F78927
:10202000E02DCE01DF91CF911F910F91FF90EF90A6
:10203000DF90CF90BF90AF909F908F907F906F90E8
:1020400009946F927F928F929F92AF92BF92CF929C
:10205000DF92EF92FF920F931F93CF93DF935C0178
:10206000EB016A01490138018701DC01ED91FC9126
:102070006217730719F5641675062CF0962D872DD7
:102080003A01C92ED82E9601261937092F5F3F4FE6
:10209000048CF58DE02DA301BE01C5010995DF91EA
:1020A000CF911F910F91FF90EF90DF90CF90BF9055
:1020B000AF909F908F907F906F9008954615570531
:1020C00091F42617370724F0892D4B01C22FD82F02
:1020D0009E01281939092F5F3F4F068CF78DE02D9F
:1020E000A601B401DACF0284F385E02D0995D5016C
:1020F000ED91FC910488F589E02D83019401A601FE
:10210000BE01C5010995D501ED91FC910688F789BD
:10211000E02DC501DF91CF911F910F91FF90EF90BE
:10212000DF90CF90BF90AF909F908F907F906F90F7
:102130000994EF92FF920F931F93DC011A960D9171
:102140001C911B9718962D913C911997ED91FC913C
:1021500000A0F1A1E02D7B0150E040E070E060E0E4
:1021600009951F910F91FF90EF9008954F925F9204
:102170006F927F928F929F92AF92BF92CF92DF9297
:10218000EF92FF920F931F93CF93DF936C012B017C
:102190005A0139014801DC01ED91FC910284F3857B
:1021A000E02D0995E201640C751CD601ED91FC91BE
:1021B000C615D7055CF40088F189E02D87019401EC
:1021C000A501BE01C60109952196EFCF0688F789C2
:1021D000E02DC601DF91CF911F910F91FF90EF90FD
:1021E000DF90CF90BF90AF909F908F907F906F9037
:1021F0005F904F9009948F929F92AF92BF92CF922F
:10220000DF92EF92FF920F931F93CF93DF93EC0136
:102210005B014A016901E881F9810284F385E02DBF
:10222000099595012C0D3D1D21503109E881F98159
:102230000488F589E02D78018401A401B501CE015F
:102240000995E881F9810688F789E02DCE01DF91B3
:10225000CF911F910F91FF90EF90DF90CF90BF90A3
:10226000AF909F908F9009948F929F92AF92BF9260
:10227000CF92DF92EF92FF920F931F93CF93DF9352
:10228000EC015B014A0169017801E881F98102846E
:10229000F385E02D0995C80CD91C86010150110960
:1022A000E881F9810488F589E02D9501A401B50143
:1022B000CE010995E881F9810688F789E02DCE01E4
:1022C000DF91CF911F910F91FF90EF90DF90CF9012
:1022D000BF90AF909F908F900994EF92FF920F93D1
:1022E0001F93DC01ED91FC9100A0F1A1E02D099577
:1022F0001F910F91FF90EF9008950F931F93DC01B2
:10230000ED91FC91068CF78DE02D09951F910F91B1
:1023100008950F931F93DC01ED91FC91048CF58DD2
:10232000E02D09951F910F910895DC01ED91FC912D
:102330000084F185E02D09942F923F924F925F9295
:102340006F927F928F929F92AF92BF92CF92DF92C5
:10235000EF92FF920F931F93CF93DF9300D000D0A3
:1023600000D0CDB7DEB73C016A013E832D83FC82ED
:10237000EB825801A41AB50AB7FE03C0B194A19428
:10238000B1088D809E80861A970A97FE03C09194AB
:10239000819491088A149B045CF0902F812F0D8109
:1023A0001E819D838E839C2D8D2D6B01692F782F2F
:1023B0000C151D055CF09D818E817E836D83692FD8
:1023C000782F902F812F8601C92ED82E1601201A22
:1023D000310A2B012D813E81421A530A57FE03C058
:1023E000519441945108710137FE03C03FEFE31A45
:1023F000F30AF594E7948D819E81861797075CF523
:10240000A1E0B0E0BA83A983C016D1064CF1D30194
:10241000ED91FC910484F585E02D2B813C81A80190
:102420006D817E818A149B041CF04D815E81B80110
:10243000C3010995E418F508F7FE0AC02D813E8115
:1024400089819A81280F391F3E832D83E20CF31C6A
:102450000F5F1F4FD9CF2FEF3FEF3A832983D4CFA0
:1024600026960FB6F894DEBF0FBECDBFDF91CF9199
:102470001F910F91FF90EF90DF90CF90BF90AF90A2
:102480009F908F907F906F905F904F903F902F9094
:102490000895089590E080E00895CF92DF92EF9242
:1024A000FF92CF93DF93CDB7DEB7CC5ED1090FB6E5
:1024B000F894DEBF0FBECDBFFE01319630E020E0C4
:1024C000D9018823E9F1A254BB4FCD90DD90ED9066
:1024D000FC90C082D182E282F38234962C5F3F4F1F
:1024E000283E310569F7C751DF4F488359836A8316
:1024F0007B83C95ED040FE01359630E020E04191FB
:10250000519161917191D9018823E9F0A254BB4F97
:102510004D935D936D937C9313972C5F3F4F283EB3
:10252000310569F7C451DF4F0FB6F894DEBF0FBE17
:10253000CDBFDF91CF91FF90EF90DF90CF900895C6
:10254000AA52BC4FC2CFAA52BC4FE2CFFC010190AD
:102550000020E9F73197AF01481B590BBC018FE50B
:1025600096E00C94FE098F929F92AF92BF920F93C8
:102570001F93CF93DF93CDB7DEB7A1970FB6F89433
:10258000DEBF0FBECDBF19A2423008F44AE08E0173
:102590000F5D1F4F842E912CB12CA12CA50194010D
:1025A0000E94151FE62FB901CA01EA30F4F4E05D7C
:1025B000D801EE938D01232B242B252B79F790E066
:1025C00080E0109719F0CD010E94A612A1960FB6D7
:1025D000F894DEBF0FBECDBFDF91CF911F910F9159
:1025E000BF90AF909F908F900895E95CE1CFCF921C
:1025F000DF92EF92FF92CF93DF936C01990FEE0879
:10260000FF08F7FE1FC06DE28FE596E00E94F00E16
:10261000EC0166277727CB016C197D098E099F098C
:102620004AE00E94B312C80FD91F8CE393E00E94C6
:10263000A6128C0F9D1FDF91CF91FF90EF90DF903E
:10264000CF9008954AE0C701B6010E94B312EC0191
:10265000ECCFCF93DF930E94A612EC018CE393E0C2
:102660000E94A6128C0F9D1FDF91CF9108952F928B
:102670003F924F925F926F927F928F929F92AF9212
:10268000BF92CF92DF92EF92FF920F931F93CF935F
:10269000DF93CDB7DEB72C970FB6F894DEBF0FBE31
:1026A000CDBF982E2090A2053090A3054090A405A0
:1026B0005090A5056090BA047090BB048091BC0452
:1026C00089839091BD049A832EEBA22E24E0B22E32
:1026D000E6EAF5E0FC87EB876F82788689879A8740
:1026E0002B823C824D825E8209E310E0EB85FC8503
:1026F000F290E290D290C290FC87EB879101A20108
:10270000C701B6010E94871C87FF0BC020E030E0A4
:10271000A901C701B6010E94871C882311F0160188
:1027200027012B813C814D815E81C701B6010E944A
:10273000F71E181624F4CB82DC82ED82FE82F501AE
:10274000F290E290D290C2905F01930149815A8148
:10275000C701B6010E94871C87FF0CC020E030E053
:10276000A901C701B6010E94871C882319F0360110
:10277000E982FA822F81388549855A85C701B601D9
:102780000E94F71E181624F4CF82D886E986FA86AE
:102790000150110909F0AACF10927906109278061B
:1027A00010926C0610926B068FE090E090936E068C
:1027B00080936D068FE393E0992009F474C00E9422
:1027C00029136B817C818D819E810E94C11E4B01EA
:1027D0007C876B87B101C2010E94C11E6B018B0116
:1027E000072E000C880B990B0E948E1C9B01AC01DC
:1027F000B101C2010E94E21D2B013C01B401092C70
:10280000000C880B990B0E948E1C9B01AC016B8104
:102810007C818D819E810E94E21D20E030E040E0BD
:102820005FE30E94F71E87FD04C0C40101969C87E8
:102830008B8720E030E040E05FE3C301B2010E94FB
:10284000F71E87FD03C086010F5F1F4F8B859C8598
:102850000E94F71210926C0610926B0681E290E0D3
:1028600090936E0680936D0683E493E00E94291393
:10287000C8012C960FB6F894DEBF0FBECDBFDF9116
:10288000CF911F910F91FF90EF90DF90CF90BF906D
:10289000AF909F908F907F906F905F904F903F9000
:1028A0002F900C94F7120E9429136F8178858985E7
:1028B0009A850E94C11E4B017C876B87B301898179
:1028C0009A810E94C11E6B018B01072E000C880BA0
:1028D000990B0E948E1C9B01AC01B30189819A81E6
:1028E0000E94E21D2B013C01B401092C000C880B55
:1028F000990B0E948E1C9B01AC016F8178858985A4
:102900009A850E94E21D20E030E040E05FE30E94F3
:10291000F71E87FD04C0F4013196FC87EB8720E0A9
:1029200030E040E05FE3C301B2010E94F71E87FD83
:1029300003C086010F5F1F4F8B859C850E94F71295
:1029400010926C0610926B0681E290E090936E06F6
:1029500080936D0683E493E00E942913C8010E94CE
:10296000F7122C960FB6F894DEBF0FBECDBFDF91E5
:10297000CF911F910F91FF90EF90DF90CF90BF907C
:10298000AF909F908F907F906F905F904F903F900F
:102990002F900C947E0B4F925F926F927F928F924A
:1029A0009F92AF92BF92CF92DF92EF92FF920F93DE
:1029B0001F93CF936B017C01742EAC019B010E948D
:1029C000FC1E882399F087E493E0CF911F910F912B
:1029D000FF90EF90DF90CF90BF90AF909F908F903F
:1029E0007F906F905F904F900C94A6124601570114
:1029F000E894B7F82FEF3FEF4FE75FE7C501B40169
:102A00000E94FC1E81110DC02FEF3FEF4FE75FE7E3
:102A1000C501B4010E94871C18161CF48BE493E0D6
:102A2000D4CF2FEF3FEF4FE75FE4C701B6010E941D
:102A3000F71E18161CF48FE493E0C7CF2FEF3FEF7B
:102A40004FE75FECC701B6010E94871C87FDF3CFFB
:102A500020E030E0A901C701B6010E94871C10E008
:102A600000E087FF0AC06DE28FE596E00E94F00E5D
:102A70008C01F7FAF094F7F8F094C0E060E070E0B1
:102A800080E09FE37C1641F020E030E040E251E43A
:102A90000E944F1ECF5FF6CFA70196010E94E31D53
:102AA0002B013C010E94C81E4B015C014AE00E94C0
:102AB000B3127C01E00EF11ECC23C1F1C501B401BB
:102AC0000E948C1C9B01AC01C301B2010E94E21D5B
:102AD0004B015C016EE28FE596E00E94F00EE80E7D
:102AE000F91EC15018F120E030E040E251E4C50188
:102AF000B4010E94ED1C2B013C010E94C81E4B0139
:102B0000B12CA12C4AE0C501B4010E94B312E80E19
:102B1000F91EC501B4010E948C1C9B01AC01C301CC
:102B2000B2010E94E21D4B015C01DBCFC701CF91D6
:102B30001F910F91FF90EF90DF90CF90BF90AF90DB
:102B40009F908F907F906F905F904F900895E0E0FE
:102B5000F1E088EF91E0DF019C011D9221503040AF
:102B6000E1F71092820680918306833508F483E5AD
:102B70008093830610928406809185068F3208F434
:102B80008FE28093850610926C0610926B0610926D
:102B90006E0610926D0608950E9433211F93CF9305
:102BA000DF9385ED8093BC0080916703909168036B
:102BB000A0916903B0916A030796A11DB11D23E09E
:102BC000B695A795979587952A95D1F72091BC0042
:102BD00024FD03C01092AF0352C04091670350918F
:102BE00068036091690370916A03452B462B472B5C
:102BF00069F30097A105B10541F02AE22A95F1F7A2
:102C000000C00197A109B109E1CF80916603C1E03D
:102C1000C0936503882399F1D091B8001091BA0050
:102C20008091BC008A7B8093BC0060E082E10E94BE
:102C3000C40760E083E10E94C4071092AF03C09311
:102C4000B1031092B00361E082E10E94C40761E029
:102C500083E10E94C4078091B9008E7F8093B90000
:102C60008091B9008D7F8093B90088E48093B8008B
:102C700085E48093BC001093BA00D093B800DF9134
:102C8000CF911F9108951F920F920FB60F921124AA
:102C90002F933F938F939F93AF93BF938091AB05F7
:102CA0009091AC05A091AD05B091AE053091A6050F
:102CB00023E0230F2D3758F50196A11DB11D209358
:102CC000A6058093AB059093AC05A093AD05B0939A
:102CD000AE058091A7059091A805A091A905B09196
:102CE000AA050196A11DB11D8093A7059093A80583
:102CF000A093A905B093AA05BF91AF919F918F9121
:102D00003F912F910F900FBE0F901F90189526E8BE
:102D1000230F0296A11DB11DD2CF1F920F920FB6A5
:102D20000F9211242F933F934F935F936F937F9351
:102D30008F939F93AF93BF93EF93FF938FEA95E0A9
:102D40000E947C0AFF91EF91BF91AF919F918F916B
:102D50007F916F915F914F913F912F910F900FBE97
:102D60000F901F9018951F920F920FB60F9211247B
:102D70002F938F939F93EF93FF93E091BF05F09173
:102D8000C0058081E091C505F091C60582FD1BC09C
:102D900090818091C8058F5F8F732091C90582173C
:102DA00041F0E091C805F0E0E155FA4F958F80932E
:102DB000C805FF91EF919F918F912F910F900FBEBA
:102DC0000F901F9018958081F4CF1F920F920FB62D
:102DD0000F9211242F933F934F935F936F937F93A1
:102DE0008F939F93AF93BF93EF93FF938091B9001D
:102DF000887F803609F44AC0F0F5883209F4A5C00E
:102E000018F5803109F499C0B8F4882309F4F5C0A5
:102E1000883009F492C0FF91EF91BF91AF919F91DB
:102E20008F917F916F915F914F913F912F910F9073
:102E30000FBE0F901F901895883109F486C080321C
:102E400051F78093AE0314C0803409F49BC040F462
:102E50008033B9F38833F9F68093AE0385ECAEC0C6
:102E6000803509F483C0883509F494C0883499F614
:102E70000E94CE15D0CF883909F48AC038F588373A
:102E800029F050F4883611F0803729F683E08093DA
:102E9000AF031092AD0355C0883809F479C080396A
:102EA00019F0803809F0B7CF8091AD03803208F077
:102EB0006FC0E091AD0381E08E0F8093AD038091F0
:102EC000BB00F0E0E357FC4F80833BC0803B39F010
:102ED000D0F4803A09F477C0883A09F09CCF84E0B6
:102EE0008093AF0310928C0310928B03F0E0E0E02C
:102EF000099580918B0381110FC081E080938B0332
:102F000010926B0309C0803C09F4A8CF883C09F4F7
:102F1000A5CF883B09F07FCFE0918C0381E08E0F35
:102F200080938C03F0E0E559FC4F80818093BB00D7
:102F300090918C0380918B0329C08091D40380935E
:102F4000BB0085EC8093BC0066CF9091D303809149
:102F5000D203981758F5E091D30381E08E0F809348
:102F6000D303F0E0EE54FC4F8081E9CFE091D3032E
:102F700081E08E0F8093D3038091BB00F0E0EE548C
:102F8000FC4F80839091D3038091D2039817C8F2AD
:102F900085E8D8CFE091D30381E08E0F8093D303EF
:102FA0008091BB00F0E0EE54FC4F80838091B10330
:102FB00081115ECF81E08093B00384EA8093BC00EE
:102FC0001092AF0328CF85EC8093BC001092AF0322
:102FD0008091AD03803230F4E091AD03F0E0E3572F
:102FE000FC4F10826091AD0370E08DE893E0F0E05B
:102FF000E0E009951092AD030ECF1092AE0338CFEA
:103000001092B2051092B10588EE93E0A0E0B0E016
:103010008093B3059093B405A093B505B093B6051E
:1030200082E093E09093B0058093AF0585EC90E04B
:103030009093BC058093BB0584EC90E09093BE0513
:103040008093BD0580EC90E09093C0058093BF0510
:1030500081EC90E09093C2058093C10582EC90E0F2
:103060009093C4058093C30586EC90E09093C605C9
:103070008093C5051092C8051092C9051092CA0523
:103080001092CB0510928706109286061092890640
:103090001092880610928B0610928A0661E070E00A
:1030A00090E080E00E9476200097E9F090938706F8
:1030B00080938606109289061092880620918A06CF
:1030C00030918B06232B11F4FC01108210928B0699
:1030D00010928A066EE373E08091860690918706CF
:1030E0000E94412114C08091860690918706009726
:1030F00011F00E94ED1F1092870610928606109222
:103100008B0610928A0610928906109288061092F9
:1031100062061092610624E530E030936406209345
:10312000630680E390E09093660680936506309393
:1031300068062093670690936A068093690610924A
:10314000750610926C0610926B0610926E06109225
:103150006D0681E080937406809373062FEF3FEF36
:1031600030937206209371063093700620936F0699
:103170008093760610927706109279061092780660
:1031800084E193E09093600680935F068CE190E089
:103190000E94511FDC0111961C921E9213961C92E4
:1031A0001E92129782E01B968C931B9785E01C96CB
:1031B0008C931C978FEF1E968C931E9784E01D9620
:1031C0008C931D97E0E2FDE0E491F0E0EE0FFF1F2D
:1031D000EC5EF24F8591949156969C938E93559701
:1031E000E2E0FDE0E4915A96EC935A97E2E2FDE0CA
:1031F000E491F0E0EE0FFF1FEC5EF24F85919491A9
:1032000050969C938E931F97E4E0FDE0E4915796CF
:10321000EC935797E3E2FDE0E491F0E0EE0FFF1F3F
:10322000EC5EF24F8591949152969C938E935197B8
:10323000E5E0FDE0E4915996EC93599740E059E0C0
:103240006DE370E014964D935D936D937C931797A7
:1032500081E090E019969C938E9318971A961C9291
:103260001A975B961C925B97B0937B06A0937A06A5
:1032700083E080937D0686E080937C068EE08093D9
:10328000510686E180935206EEE0FDE0E491E09382
:103290005306ECE2FDE0E491E093540680E89EE3FF
:1032A000A0E0B0E08093590690935A06A0935B0685
:1032B000B0935C060895789484B5826084BD84B52B
:1032C000816084BD85B5826085BD85B5816085BD21
:1032D00080916E00816080936E00109281008091D9
:1032E0008100826080938100809181008160809361
:1032F0008100809180008160809380008091B10086
:1033000084608093B1008091B00081608093B000B0
:1033100080917A00846080937A0080917A00826044
:1033200080937A0080917A00816080937A00809106
:103330007A00806880937A001092C100E091BF0506
:10334000F091C00582E08083E091BB05F091BC055F
:103350001082E091BD05F091BE058FEC8083109244
:10336000C705E091C305F091C40586E08083E09134
:10337000C105F091C205808180618083E091C10523
:10338000F091C205808188608083E091C105F09151
:10339000C205808180688083E091C105F091C205FB
:1033A00080818F7D80838091780690917906892B2A
:1033B00049F480916D0690916E06069690936E0684
:1033C00080936D068FEC9CE090937906809378064D
:1033D000C0917A06D0917B068B858F3F39F061E0F2
:1033E0000E94640861E08B850E94C40788819981EE
:1033F000892B09F4C7C01FB7F8948091D5038111B8
:1034000027C0E8E2FDE08491EAE0FDE09491E82F36
:10341000F0E0EE0FFF1FE852F34FA591B491EC914D
:10342000E92321F461E08AE00E94C40761E08AE0B8
:103430000E9464088CB580618CBD8CB580648CBDA5
:1034400061E08DE00E94640861E08BE00E94640806
:103450008091D5038F5F8093D5031FBF81E08B8F51
:1034600061E080917D060E94640880917C0687FD62
:1034700003C061E00E94640884E080937F0688E2D4
:1034800080937E0610928006109281060E94400B67
:103490001092820680918306833508F483E5809339
:1034A000830610928406809185068F3208F48FE29D
:1034B000809385060E947E0B8EE10E94290B0E945C
:1034C000A71581E090E090936C0680936B068BE1EA
:1034D00090E090936E0680936D0683E593E00E94E2
:1034E00029130E947E0B62E0809151060E946408BD
:1034F0002FB7F8948091AB059091AC05A091AD05E4
:10350000B091AE052FBF805D9740A109B1098093AE
:10351000550690935606A0935706B093580687E336
:1035200080935E06A6EDB3E0EEEBF4E0119211920B
:10353000119211921D921D921D921D9285E0E63A04
:10354000F807A1F7CFECDCE0FEE02F2E312CAAE04B
:103550008A2E912CB0E0AB2EB0E0BB2E0E94F70873
:10356000882349F0809152068C3009F487C040F5D9
:103570008B3009F43EC0412C512C70EC672E7FE754
:10358000772E61C061E08C850E9464088A858B7FFC
:1035900060E009F061E08C850E94C4078D858F3F53
:1035A00039F061E00E94640861E08D850E94C407E3
:1035B0008E858F3F09F452CF60E00E9464084ECFA1
:1035C00085518230C0F610914E06612F70E0762F43
:1035D000662766277F7780914F06682B90E080E012
:1035E0000E948C1C2DEC3CEC4CEC5DE30E94ED1C2D
:1035F00061C060914E0670E090E080E00E948C1CFB
:103600002B013C0110914F0617FF0AC0AC019B0132
:1036100060E070E080E89FEB0E94E21D2B013C011E
:103620001F70612F70E090E080E00E948E1C2DECF6
:103630003CEC4CEC5DE30E94ED1CA30192010E9466
:10364000E31D2B013C0168E873E180E090E00E94FB
:10365000C5080E94F708882351F0809152068B30EC
:1036600030F08D3080F18551823008F42DC1C12CAD
:10367000D12C60ECE62E6FE7F62E43C010914E067B
:10368000612F70E090E080E00E948C1C2B013C01D7
:1036900060914F066F7070E090E080E00E948E1C99
:1036A0002DEC3CEC4CEC5DE30E94ED1CA30192017F
:1036B0000E94E31D2B013C0117FFC5CF77FA7094E0
:1036C00077F87094C0CF60914D0670E090E080E094
:1036D0000E948E1C2DEC3CEC4CEC5DE30E94ED1C3A
:1036E0006B017C0160914C0670E090E080E00E94EC
:1036F0008E1C9B01AC01C701B6010E94E31D6B014A
:103700007C0168E873E180E090E00E94C508A301B5
:103710009201C301B2010E94FC1E811109C0A701E0
:103720009601C701B6010E94FC1E882309F4DEC081
:1037300040E050E0BA0181E00E944D1240E050E0CC
:10374000BA0180E00E944D120E94A715D09379061D
:10375000C093780630926C0620926B06EDE0F0E0A4
:10376000F0936E06E0936D066091A2057091A3053B
:103770008091A4059091A50542E00E94CB148FE5AD
:1037800093E00E94A6120E947E0B4EEB442E44E072
:10379000542E59E1652E712CF20121913191419104
:1037A00051912F0160E070E080E492E40E94E21DFC
:1037B0000E94C11EEE24E394F12C00E310E093017B
:1037C000AB01B3018FE596E00E949C1181E00E945D
:1037D0003713FFEF6F1A7F0A83E568167104E1F66D
:1037E0000E947E0B68E873E180E090E00E94C508CB
:1037F0000E94A715D0937906C093780690926C0624
:1038000080926B06EDE0F0E0F0936E06E0936D06BB
:1038100081E693E00E94A6126091BA047091BB0405
:103820008091BC049091BD0442E00E94CB148CE3D3
:1038300093E00E94A6120E947E0B96ED492E93E023
:10384000592E29E1622E712CF201619171918191C1
:1038500091912F012AE939E949E95EE30E94ED1CC3
:103860009B01AC0160E070E080E492E40E94E21D04
:103870000E94C11EEE24E394F12C00E310E09301BA
:10388000AB01B3018FE596E00E949C1180E00E949D
:103890003713FFEF6F1A7F0A83E568167104A1F6EC
:1038A0000E947E0B68E873E180E090E00E94C5080A
:1038B000A114B10409F452CE0E94680A882309F4C5
:1038C0004DCE0E9400004ACE60914C0670914D068C
:1038D00076276727762790E080E00E948C1C2DECED
:1038E0003CEC4CEC5DE30E94ED1C09CFB301A2015E
:1038F00081E00E944D12B701A60123CF8091860678
:1039000090918706009711F00C94ED1F08950E9486
:10391000C91C08F481E00895E89409C097FB3EF4BF
:1039200090958095709561957F4F8F4F9F4F99230C
:10393000A9F0F92F96E9BB279395F695879577958A
:103940006795B795F111F8CFFAF4BB0F11F460FF4A
:103950001BC06F5F7F4F8F4F9F4F16C0882311F0A2
:1039600096E911C0772321F09EE8872F762F05C0B6
:10397000662371F096E8862F70E060E02AF09A9551
:10398000660F771F881FDAF7880F9695879597F946
:103990000895990F0008550FAA0BE0E8FEEF1616E0
:1039A0001706E807F907C0F012161306E407F50733
:1039B00098F0621B730B840B950B39F40A2661F0A7
:1039C000232B242B252B21F408950A2609F4A1404A
:1039D000A6958FEF811D811D08950E94001D0C94F6
:1039E000711D0E94631D38F00E946A1D20F095230E
:1039F00011F00C945A1D0C94601D11240C94A51DFB
:103A00000E94821D70F3959FC1F3950F50E0551FE2
:103A1000629FF001729FBB27F00DB11D639FAA2723
:103A2000F00DB11DAA1F649F6627B00DA11D661F72
:103A3000829F2227B00DA11D621F739FB00DA11D93
:103A4000621F839FA00D611D221F749F3327A00D4D
:103A5000611D231F849F600D211D822F762F6A2FE9
:103A600011249F5750409AF0F1F088234AF0EE0F4E
:103A7000FF1FBB1F661F771F881F91505040A9F77B
:103A80009E3F510580F00C945A1D0C94A51D5F3F7C
:103A9000E4F3983ED4F3869577956795B795F795B7
:103AA000E7959F5FC1F7FE2B880F911D969587952F
:103AB00097F9089597F99F6780E870E060E00895AE
:103AC0009FEF80EC089500240A9416161706180636
:103AD0000906089500240A94121613061406050612
:103AE0000895092E0394000C11F4882352F0BB0FA3
:103AF00040F4BF2B11F460FF04C06F5F7F4F8F4F06
:103B00009F4F089557FD9058440F551F59F05F3F40
:103B100071F04795880F97FB991F61F09F3F79F0EF
:103B200087950895121613061406551FF2CF469571
:103B3000F1DF08C0161617061806991FF1CF8695F3
:103B40007105610508940895E894BB2766277727D7
:103B5000CB0197F908952F923F924F925F926F9207
:103B60007F928F929F92AF92BF92CF92DF92EF920D
:103B7000FF920F931F93CF93DF93CDB7DEB7CA1B8E
:103B8000DB0B0FB6F894DEBF0FBECDBF09942A88B9
:103B9000398848885F846E847D848C849B84AA8461
:103BA000B984C884DF80EE80FD800C811B81AA81EE
:103BB000B981CE0FD11D0FB6F894DEBF0FBECDBFB9
:103BC000ED0108955058BB27AA270E94FA1D0C94B6
:103BD000711D0E94631D38F00E946A1D20F039F4A7
:103BE0009F3F19F426F40C94601D0EF4E095E7FB5A
:103BF0000C945A1DE92F0E94821D58F3BA176207D0
:103C000073078407950720F079F4A6F50C94A41D9A
:103C10000EF4E0950B2EBA2FA02D0B01B9019001E7
:103C20000C01CA01A0011124FF27591B99F0593F2B
:103C300050F4503E68F11A16F040A22F232F342F73
:103C40004427585FF3CF469537952795A795F040C1
:103C50005395C9F77EF41F16BA0B620B730B840BD6
:103C6000BAF09150A1F0FF0FBB1F661F771F881F8E
:103C7000C2F70EC0BA0F621F731F841F48F48795E6
:103C800077956795B795F7959E3F08F0B0CF9395D8
:103C9000880F08F09927EE0F9795879508950E9451
:103CA000631E0C94711D0E946A1D58F00E94631DD2
:103CB00040F029F45F3F29F00C945A1D51110C94E7
:103CC000A51D0C94601D0E94821D68F39923B1F319
:103CD000552391F3951B550BBB27AA276217730732
:103CE000840738F09F5F5F4F220F331F441FAA1FC6
:103CF000A9F335D00E2E3AF0E0E832D09150504082
:103D0000E695001CCAF72BD0FE2F29D0660F771F2F
:103D1000881FBB1F261737074807AB07B0E809F015
:103D2000BB0B802DBF01FF2793585F4F3AF09E3F9A
:103D3000510578F00C945A1D0C94A51D5F3FE4F3D7
:103D4000983ED4F3869577956795B795F7959F5FDD
:103D5000C9F7880F911D9695879597F90895E1E029
:103D6000660F771F881FBB1F621773078407BA0788
:103D700020F0621B730B840BBA0BEE1F88F7E095E3
:103D800008950E94C81E6894B1110C94A51D089551
:103D90000E948A1D88F09F5798F0B92F9927B75134
:103DA000B0F0E1F0660F771F881F991F1AF0BA95DF
:103DB000C9F714C0B13091F00E94A41DB1E008957C
:103DC0000C94A41D672F782F8827B85F39F0B93F6E
:103DD000CCF3869577956795B395D9F73EF4909592
:103DE0008095709561957F4F8F4F9F4F08950E94EA
:103DF000C91C08F48FEF08950E94C91C880B990B09
:103E0000089597FB072E16F4009407D077FD09D08C
:103E10000E94371F07FC05D03EF4909581959F4F77
:103E20000895709561957F4F0895A1E21A2EAA1BFF
:103E3000BB1BFD010DC0AA1FBB1FEE1FFF1FA2175A
:103E4000B307E407F50720F0A21BB30BE40BF50B57
:103E5000661F771F881F991F1A9469F760957095E0
:103E6000809590959B01AC01BD01CF010895AA1BDF
:103E7000BB1B51E107C0AA1FBB1FA617B70710F055
:103E8000A61BB70B881F991F5A95A9F78095909587
:103E9000BC01CD010895EE0FFF1F0590F491E02DB8
:103EA00009940F931F93CF93DF938230910510F401
:103EB00082E090E0E0918E06F0918F0630E020E005
:103EC000B0E0A0E0309799F42115310509F44AC01B
:103ED000281B390B24303105D8F58A819B81611567
:103EE000710589F1FB0193838283FE0111C040813A
:103EF00051810281138148175907E0F0481759078B
:103F000099F4109761F012960C93129713961C93E4
:103F10003296CF01DF91CF911F910F9108950093B9
:103F20008E0610938F06F4CF2115310551F04217FC
:103F3000530738F0A901DB019A01BD01DF01F80147
:103F4000C1CFEF01F9CF90938F0680938E06CDCF2E
:103F5000FE01E20FF31F81939193225031093983BF
:103F60002883D7CF20918C0630918D06232B41F4E6
:103F70002091FA023091FB0230938D0620938C063B
:103F80002091F8023091F9022115310541F42DB745
:103F90003EB74091FC025091FD02241B350BE0918D
:103FA0008C06F0918D06E217F307A0F42E1B3F0B51
:103FB0002817390778F0AC014E5F5F4F241735079B
:103FC00048F04E0F5F1F50938D0640938C068193EF
:103FD00091939FCFF0E0E0E09CCFCF93DF930097E9
:103FE000E9F0FC01329713821282A0918E06B09103
:103FF0008F06ED0130E020E01097A1F4208131819F
:10400000820F931F20918C0630918D062817390757
:1040100009F061C0F0938D06E0938C06DF91CF919B
:104020000895EA01CE17DF07E8F54A815B819E011A
:1040300041155105B1F7E901FB83EA834991599193
:10404000C40FD51FEC17FD0761F4808191810296A2
:10405000840F951FE90199838883828193819B83D3
:104060008A83F0E0E0E012968D919C91139700977F
:10407000B9F52D913C911197CD010296820F931FB6
:1040800020918C0630918D062817390739F6309724
:1040900051F510928F0610928E06B0938D06A09364
:1040A0008C06BCCFD383C28340815181840F951F7E
:1040B000C817D90761F44E5F5F4F88819981480F17
:1040C000591F518340838A819B8193838283211569
:1040D000310509F0B0CFF0938F06E0938E069ECFA6
:1040E000FD01DC01C0CF13821282D7CFB0E0A0E087
:1040F000ECE7F0E20C94AD1D8C01009751F4CB017C
:104100000E94511F8C01C801CDB7DEB7E0E10C94CD
:10411000C91DFC01E60FF71F9C0122503109E2176F
:10412000F30708F49DC0D901CD91DC911197C61712
:10413000D70798F0C530D10530F3CE010497861724
:10414000970708F3C61BD70B2297C193D1936D93A2
:104150007C93CF010E94ED1FD6CF5B01AC1ABD0A44
:104160004C018C0E9D1EA0918E06B0918F06512C95
:10417000412CF12CE12C109731F580918C06909117
:104180008D068815990509F05CC04616570608F09B
:1041900058C08091F8029091F902009741F48DB7D0
:1041A0009EB74091FC025091FD02841B950BE817CD
:1041B000F90708F055C0F0938D06E0938C06F901DD
:1041C00071836083A0CF8D919C91119712966C9012
:1041D000129713967C901397A815B90559F56C01A1
:1041E00042E0C40ED11CCA14DB0420F1AC014A1910
:1041F0005B09DA011296159780F06282738251830F
:104200004083D9016D937C93E114F10471F0D701DF
:104210001396FC93EE93129776CF22968C0F9D1FE8
:10422000F90191838083F301EFCFF0938F06E09340
:104230008E0669CF4816590608F42C017D01D3017A
:104240009ACFCB010E94511F7C01009749F0AE012B
:10425000B8010E943821C8010E94ED1F870153CF89
:1042600010E000E050CF81E090E0F8940C944821F9
:10427000FB01DC0102C001900D9241505040D8F783
:104280000895FB01DC0101900D920020E1F70895F3
:1042900016E0CAE9D6E004C0FE010E944B1F219639
:0A42A000CB39D107C9F7F894FFCF1E
:1042AA000000000000000000000000000000000004
:1042BA0000000000000000000000000000000000F4
:1042CA00000000000000C0E0F0F8FCFCFEFFFCE08B
:1042DA0000000000000000000000000000000000D4
:1042EA0000000000000000000000000000000000C4
:1042FA0000000000000000000000000000000000B4
:10430A000000000000F8F8F8F8F8F8F8F8F8F8F8FB
:10431A00F8F0F0E0E0C080C0FCFFFFFFFF7F3F7FC6
:10432A00FFFFFFFFFF000000000000000000000088
:10433A000000000000000000000000000000000073
:10434A000000000000000000000000000000000063
:10435A00000000000000000000000F1F3F7FFFFF69
:10436A00FFFFFFFFFFFFE7C7C7878F9F9FFFFFFF83
:10437A00C1C0E0FCFFFFFFFFFFFCFCFCFCFEFEFEF1
:10438A00FCFCF8F8F0E0C0C00000000000000000EB
:10439A000000000000000000000000000000000013
:1043AA000000000000000000000000000000000003
:1043BA000080C0E0F1FBFFFFFFFFFF7F1F0F0F87A9
:1043CA00E7FFFFFF1F1F3FF9F8F8F8F8F8F8FDFFBD
:1043DA00FFFFFFFFFFFFFFFF7F3F0F070100000006
:1043EA0000000000000000000000000000000000C3
:1043FA0000000000000000000000000000000000B3
:10440A00000000F0FEFFFFFFFFFFFFFFFFFFFFFEC0
:10441A007E3F3F0F1FFFFFFFFCF0E0F1FFFFFFFFB2
:10442A00FFFCF0010101010101010100000000008F
:10443A000000000000000000000000000000000072
:10444A000000000000000000000000000000000062
:10445A000000000000000003030303030303030139
:10446A0001010100000000000000030F1F3F7F7FD1
:10447A00FFFFFFFF7F7F1F03000000000000000016
:10448A000000000000000000000000000000000022
:10449A0000000000000000000000900680000000FC
:1044AA0000009E0AFE092B0AEB0A5C0A3A0A4E0A27
:1044BA0000000000F00EFE094A124912F40B8B0CA0
:1044CA0095116D1189117D119C118B0CB60CE30BA2
:1044DA003411FB10B61099102110C20F0D0A004DAD
:1044EA004158004D494E006E616E00696E66006F5C
:1044FA007666005374617274696E672E2E2E0043BD
:04450A000025000088
:00000001FF
